:020000040800F2
:10000000D83E0020DD010008A9270008D51B000804
:10001000A5270008310500083D2D0008000000005C
:100020000000000000000000000000004501000882
:100030003505000800000000890100086528000857
:10004000F7010008F7010008F7010008F7010008B0
:10005000F7010008F7010008F7010008F7010008A0
:10006000F7010008F7010008F7010008F701000890
:10007000F7010008F7010008F7010008F701000880
:10008000F7010008F7010008F7010008F701000870
:10009000F7010008F7010008F7010008F701000860
:1000A000F7010008F7010008F7010008F701000850
:1000B000F7010008F7010008F7010008F701000840
:1000C000F7010008F7010008F7010008F701000830
:1000D000F7010008712C0008F7010008A52C0008A2
:1000E00037050008F7010008F7010008F7010008CC
:1000F00001290008F7010008F7010008F7010008CE
:10010000F7010008F7010008F7010008F7010008EF
:10011000F7010008F7010008F7010008F7010008DF
:10012000F7010008F7010008F7010008F7010008CF
:10013000DFF80CD000F004F90048004769330008EC
:10014000D83E0020224B19680868B0E8F00F80F311
:100150000988BFF36F8F4FF0000080F311884EF0D5
:100160000D0E70470000000006480068006880F32C
:10017000088862B661B6BFF34F8FBFF36F8F00DFA1
:1001800000BF00BF08ED00E0EFF30980BFF36F8F01
:100190000F4B1A6820E9F00F106008B54FF05000BF
:1001A00080F31188BFF34F8FBFF36F8F06F0CEFD42
:1001B0004FF0000080F31188BDE808401968086816
:1001C000B0E8F00F80F30988BFF36F8F704700BF6E
:1001D0001C000020EFF305807047000006488047B0
:1001E00006480047FEE7FEE7FEE7FEE7FEE7FEE71C
:1001F000FEE7FEE7FEE7FEE7FF2800083101000802
:10020000202A04DB203A21FA02F00021704721FA6B
:1002100002F3D040C2F120029140084319467047D2
:100220000649074A0868504343F2390210440860FF
:10023000400870470149086070470000B000002086
:100240006D4EC64140EA01039B0703D009E008C98F
:10025000121F08C0042AFAD203E011F8013B00F88B
:10026000013B521EF9D27047D2B201E000F8012BD7
:10027000491EFBD270470022F6E710B513460A4626
:1002800004461946FFF7F0FF204610BD30B505467D
:100290002A460B4612F8010B13F8014B08B1A04295
:1002A000F8D01CB1002802D06D1CF1E7284630BD03
:1002B000421C10F8011B0029FBD1801A704730B591
:1002C00005460020034600E05B1C934205D2EC5C2F
:1002D000C85C201A01D1002CF6D130BD2DE9F05FA9
:1002E0000546002092469B468846064681464024A5
:1002F0001BE02846414647462246FFF781FF53460A
:100300005A46C01A914110D311461846224600F0B1
:1003100029F82D1A67EB01084F46224601200021DB
:1003200000F020F817EB00094E41201EA4F1010453
:10033000DFDC484631462A464346BDE8F09F0000D0
:10034000064C074D06E0E06840F0010394E8070022
:1003500098471034AC42F6D3FFF7EEFE2C8300082A
:100360004C830008202A04DB203A00FA02F1002026
:1003700070479140C2F1200320FA03F319439040E3
:100380007047000010B5054805F074F9044805F001
:1003900071F9044806F08DF8002010BDA00000207F
:1003A000A40000206432002070B505460E4600BF50
:1003B0000949284606F083F808B9002070BD314687
:1003C000064805F061F9044614B96FF00100F5E73D
:1003D000012CEDD00020F1E764320020A4000020C1
:1003E0009AB0002447E001A908194FF0FF3100F04E
:1003F000EFF8002101AA601C1154002C2ED0601EC1
:1004000001A9085C0D2829D101A8005D0A2825D181
:1004100019A101A8FFF73AFF60B1224601A91848C7
:10042000FFF710FF002002F005FA164805F000F96A
:10043000002411E014A101A8FFF728FF60B12246B3
:1004400001A90F48FFF7FEFE4FF0FF3002F0F2F96E
:100450000C4805F0EDF80024002409E001A800F0A4
:10046000A7F820B101A802F0A1F9002400E0641C63
:10047000642C00DB0024B6E74F4B0D0A000000009F
:100480006C360020A00000204552524F520D0A0049
:100490002DE9F04780460C4616461F464046FFF7BA
:1004A00007FF82465146404600F09AF8022110A00C
:1004B00000F096F839460F4805F0E6F88146B9F1A4
:1004C000000F11D000F06EF8054655B94CB1642EFE
:1004D00001DD642000E03046024607492046FFF770
:1004E000B1FE2846BDE8F0876FF00100FAE7000092
:1004F0000D0A0000A00000206C3600202DE9F0411C
:1005000005460E4614463146284600F069F8214655
:10051000064805F0B9F807462FB100F043F88046C9
:100520004046BDE8F0816FF00100FAE7A00000202E
:1005300000BFFEE7704710B54FF4804000F076F939
:100540004FF4004000F072F910BD000010B5012218
:100550000021252000F0D0FB252000F0BDFB044841
:100560000068C06840F0600001490968C86010BDBB
:10057000C004002010B500220F21272000F0BCFB92
:10058000272000F0A9FB04480068C06840F0200064
:1005900001490968C86010BD0405002072B600BF9B
:1005A000FEE700000148006870470000A800002036
:1005B00010B5044604A12046FFF768FE08B10120EB
:1005C00010BD0020FCE700002B4950442C00000027
:1005D00070B504460D462946204602F085FB70BDE5
:1005E00070B504460D462946204602F091FB70BDC9
:1005F0000146002291F82100022808D004208863D7
:1006000000BF002081F8200000BF0120704708686B
:10061000006820F00E000B6818600868006820F081
:1006200001000B68186091F8403001209840CB6BB6
:100630005860012081F8210000BF002081F82000CF
:1006400000BF1046E2E7000070B50446002594F8AC
:100650002100022803D00420A0630125C1E0206806
:10066000006820F00E00216808602068006820F013
:100670000100216808605C492068884252D95A49C3
:1006800078392068884201D1012047E05649643911
:100690002068884201D1102040E053495039206839
:1006A000884201D1801539E04F493C3920688842A1
:1006B00001D1801432E04C4928392068884202D1A7
:1006C0004FF480302AE0484914392068884202D12A
:1006D0004FF4801022E044492068884201D1400450
:1006E0001CE042492068884201D1012016E03F49C0
:1006F00014312068884201D110200FE03B49283195
:100700002068884201D1801508E038493C312068D2
:10071000884201D1801401E04FF480303349091F31
:10072000086051E0304978392068884201D10120C1
:1007300047E02D4964392068884201D1102040E00B
:10074000294950392068884201D1801539E026496D
:100750003C392068884201D1801432E0224928398E
:100760002068884202D14FF480302AE01E491439B3
:100770002068884202D14FF4801022E01A49206894
:10078000884201D140041CE018492068884201D108
:10079000012016E0154914312068884201D110204B
:1007A0000FE0124928312068884201D1801508E005
:1007B0000E493C312068884201D1801401E04FF499
:1007C0008030094980394860012084F8210000BF49
:1007D000002084F8200000BF606B10B12046616BE0
:1007E0008847284670BD000080000240080402408F
:1007F00010B50446B4F5804F07D14FF48041084846
:1008000000F0C2F90749087009E0B4F5004F06D1BD
:100810004FF40041024800F0B7F90349087010BDD9
:1008200000180140170000201800002010B50446F1
:1008300004480068204020B1024804602046FFF7C9
:10084000D7FF10BD140401402DE9F84702460023EC
:100850009C467BE14FF0010808FA03F4D1F80080D0
:1008600008EA0400A0427DD1DFF8F4A2D1F80480A8
:10087000A8EB0A09D0453AD014DCB8F1030F50D0E8
:1008800009DCB8F1000F31D0B8F1010F1CD0B8F17C
:10089000020F49D120E0B8F1110F18D0B8F1120FB2
:1008A00042D11EE0B9F5881F25D006DCB9F5803F9E
:1008B00020D0B9F5801F37D11AE0B9F5001F18D044
:1008C000B9F5041F30D117E0D1F80CC02DE0D1F8F4
:1008D0000C8008F1040C28E0D1F80C8008F1080C19
:1008E00023E0D1F80C8008F10C0C1EE000BF00BF23
:1008F00000BF00BF00BF00BFD1F80880B8F1000FF3
:1009000002D14FF0040C0BE0D1F80880B8F1010FD0
:1009100003D14FF0080C146102E04FF0080C546151
:1009200003E04FF0000C00E000BF00BFFF2801D83B
:10093000904601E002F104084646FF2802D84FEA3B
:10094000830803E0A3F108084FEA88084746D6F871
:1009500000804FF00F0909FA07F928EA09080CFA94
:1009600007F900E07AE048EA0908C6F80080D1F803
:10097000048008F08058B8F1805F6FD100BFDFF8C5
:10098000E481D8F8188048F00108DFF8D891C9F858
:100990001880C846D8F8188008F00108CDF8008003
:1009A00000BF00BF4FEAB9384FEA930958F8295001
:1009B0004FEA83784FEA18794FF00F0808FA09F8E0
:1009C00025EA0805DFF8A081424502D14FF0000872
:1009D00024E0DFF89881424502D14FF001081DE084
:1009E000DFF88C81424502D14FF0020816E0DFF8B3
:1009F0008481424502D14FF003080FE0DFF878818F
:100A0000424502D14FF0040808E0DFF8708142450A
:100A100002D14FF0050801E04FF006084FEA837954
:100A20004FEA197908FA09F848EA0505DFF8508114
:100A30004FEA930948F82950D1F8048008F4803827
:100A4000B8F5803F0BD1DFF83C81D8F8008048EA48
:100A50000008DFF83091C9F800800AE075E0DFF89F
:100A60002481D8F8008028EA0008DFF81891C9F836
:100A70000080D1F8048008F40038B8F5003F0ED1AA
:100A8000DFF8008108F10408D8F8008048EA00087F
:100A9000DFF8F09009F10409C9F800800DE0DFF8F3
:100AA000E48008F10408D8F8008028EA0008DFF89C
:100AB000D49009F10409C9F80080D1F8048008F441
:100AC0008018B8F5801F0ED1DFF8B88008F108084B
:100AD000D8F8008048EA0008DFF8A89009F1080972
:100AE000C9F800800DE0DFF89C8008F10808D8F80C
:100AF000008028EA0008DFF88C9009F10809C9F89D
:100B00000080D1F8048008F40018B8F5001F0ED159
:100B1000DFF8708008F10C08D8F8008048EA000877
:100B2000DFF8609009F10C09C9F800800DE0DFF8EA
:100B3000548008F10C08D8F8008028EA0008DFF893
:100B4000449009F10C09C9F800805B1CD1F80080C1
:100B500028FA03F8B8F1000F7FF47CAEBDE8F887FF
:100B6000000011100010024000080140000C01407C
:100B7000001001400014014000180140001C014019
:100B80000800014000040140024693680B400BB18D
:100B9000012000E0002070470AB1016101E00B0470
:100BA000036170470148006870470000040000209E
:100BB0000348006803490978084401490860704700
:100BC000040000200C00002010B50848006840F028
:100BD000100006490860032000F0CCF80F2000F058
:100BE00007F800F049F8002010BD00000020024086
:100BF00070B588B0044600250026002221462C202E
:100C000000F07AF82C2000F067F800BF16488069E1
:100C100040F40050144988610846806900F400508F
:100C2000019000BF00BF02A903A800F07DF900F009
:100C3000B3F905460D48B5FBF0F0461E0C480D49CA
:100C4000086040F2E7310B48C16046600021016155
:100C5000816000F02FFC20B9064800F05FFC08B06E
:100C600070BD0120FBE700000010024040420F0071
:100C7000003401404805002008B500BF14488069D1
:100C800040F00100124988610846806900F00100C7
:100C9000009000BF00BF00BF0846C06940F0805010
:100CA000C8610846C06900F08050009000BF00BFD6
:100CB00000220F21901E00F01FF800BF0549486870
:100CC00020F0E06040F00070486000BF08BD000008
:100CD000001002400000014001460846002809DBE0
:100CE00000F01F0301229A4043099B0003F1E02317
:100CF000C3F8002100BF70472DE9F05F80460D4624
:100D00001646002702F040F8074639462A46334681
:100D100001F00700C0F1070ABAF1040F02D94FF041
:100D2000040A01E0C0F1070AD14600F1040ABAF151
:100D3000070F02D24FF0000A01E0A0F1030AD446E7
:100D40004FF0010A0AFA09FAAAF1010A0AEA020AAC
:100D50000AFA0CFA4FF0010B0BFA0CFBABF1010B8A
:100D60000BEA030B4AEA0B042146404602F014F852
:100D7000BDE8F09F00BF00F00702064B19684FF670
:100D8000FF031940044B0B4343EA0221014B196056
:100D900000BF70470CED00E00000FA0570B5044696
:100DA0000D460CB9012070BD5A48006800F00700DC
:100DB000A8420ED25748006820F007002843554942
:100DC00008600846006800F00700A84201D0012032
:100DD000E9E7207800F0020002281DD1207800F019
:100DE0000400042805D14C48406840F4E0604A49BA
:100DF0004860207800F00800082805D1464840687F
:100E000040F46050444948604348406820F0F00096
:100E1000A168084340494860207800F0010078B399
:100E20006068012806D13C48006800F4003090B9A1
:100E30000120B8E76068022806D13748006800F052
:100E4000007040B90120AEE73348006800F00200AE
:100E500008B90120A7E73048406820F00300616826
:100E600008432D494860FFF79DFE064609E0FFF75D
:100E700099FE801B41F28831884202D9032092E713
:100E800007E02548406800F00C006168B0EB810F76
:100E9000EDD12048006800F00700A8420ED91D4897
:100EA000006820F0070028431A49086008460068D7
:100EB00000F00700A84201D0012074E7207800F07C
:100EC0000400042807D11448406820F4E060E16879
:100ED000084311494860207800F00800082808D12C
:100EE0000D48406820F46050216940EAC1000A4979
:100EF000486000F061F808494968C1F30311074AE6
:100F0000515CC8400649086006480068FFF770FE5B
:100F1000002048E700200240001002402C7F00081B
:100F200010000020080000200F2202600D4A5268C5
:100F300002F0030242600B4A526802F0F002826043
:100F4000084A526802F4E062C260064A526802F43B
:100F50006052D2080261044A126802F007020A6075
:100F60007047000000100240002002400148006865
:100F7000704700001000002000B5FFF7F7FF04499C
:100F80004968C1F30221034A515CC84000BD00001A
:100F9000001002403C7F000800B5FFF7E7FF04495E
:100FA0004968C1F3C221034A515CC84000BD00003A
:100FB000001002403C7F0008F0B585B00FF26C0CC9
:100FC0009CE8E01001A8A0E8E0101CA52D680095A1
:100FD00000210022002300240020194D696801F03F
:100FE0000C05F5B1042D02D0082D19D101E01548EA
:100FF00019E001ADC1F38346AC5D01F4803555B114
:101000000F4D6D68C5F340451DF805200D4D654336
:10101000B5FBF2F302E00C4D04FB05F3184602E0C9
:1010200000BF084800BF00BF05B0F0BD02030405C3
:10103000060708090A0B0C0D0E0F10100102000024
:101040000010024000127A0000093D00F8B5044685
:101050000CB90120F8BD207800F00100002878D0FC
:10106000F848406800F00C0004280CD0F5484068AF
:1010700000F00C00082811D1F248406800F48030DC
:10108000B0F5803F0AD1EF48006800F40030002836
:101090005FD0606800285CD10120DBE700BF60689A
:1010A000B0F5803F06D1E748006840F48030E5495C
:1010B000086028E0606858B9E248006820F4803091
:1010C000E04908600846006820F4802008601AE0C3
:1010D0006068B0F5A02F0BD1DA48006840F480209A
:1010E000D84908600846006840F4803008600AE08B
:1010F000D448006820F48030D2490860084600686F
:1011000020F48020086000BF606888B1FFF74AFDC6
:10111000054606E0FFF746FD401B642801D9032081
:1011200098E7C848006800F400300028F2D010E0CA
:10113000FFF738FD054606E0FFF734FD401B642845
:1011400001D9032086E7BF48006800F4003000287A
:10115000F2D1207800F00200022857D1B948406847
:1011600000F00C0050B1B748406800F00C000828AF
:1011700018D1B448406800F4803098B9B14800688C
:1011800000F0020020B12069012801D0012061E7B0
:10119000AC48006820F0F800616940EAC100A94944
:1011A000086033E02069E8B10120A7490860FFF733
:1011B000F9FC054606E0FFF7F5FC401B022801D9C3
:1011C000032047E79F48006800F002000028F2D0A3
:1011D0009C48006820F0F800616940EAC100994924
:1011E000086013E0002098490860FFF7DBFC054623
:1011F00006E0FFF7D7FC401B022801D9032029E7AE
:101200009048006800F002000028F2D1207800F039
:10121000080008282DD1A069B8B101208B490860C9
:10122000FFF7C0FC054606E0FFF7BCFC401B0228A8
:1012300001D903200EE78348406A00F0020000282D
:10124000F2D0012001F0E2FA13E000207F490860AB
:10125000FFF7A8FC054606E0FFF7A4FC401B0228A8
:1012600001D90320F6E67748406A00F00200002822
:10127000F2D1207800F00400042873D100277148CF
:10128000C06900F0805070B900BF6E48C06940F07E
:1012900080506C49C8610846C06900F080500090D9
:1012A00000BF00BF01276A48006800F48070B0B931
:1012B0006748006840F4807065490860FFF772FC79
:1012C000054606E0FFF76EFC401B642801D90320A9
:1012D000C0E65F48006800F480700028F2D000BFCC
:1012E000E068012806D15748006A40F001005549DE
:1012F000086227E0E06858B95248006A20F001000F
:10130000504908620846006A20F00400086219E0AB
:10131000E06805280BD14B48006A40F004004949B9
:1013200008620846006A40F0010008620AE0454889
:10133000006A20F00100434908620846006A20F074
:101340000400086200BFE068A0B1FFF72BFC05466F
:1013500009E0FFF727FC401B41F28831884202D99F
:10136000032077E622E03748006A00F002000028F8
:10137000EFD012E0FFF716FC054608E0FFF712FC7D
:10138000401B41F28831884201D9032062E62D4892
:10139000006A00F002000028F0D1012F05D1294891
:1013A000C06920F080502749C86100BFE069C8B318
:1013B0002448406800F00C00082860D0E06902284A
:1013C00048D1002020490866FFF7ECFB054606E0FF
:1013D000FFF7E8FB401B022801D903203AE6194831
:1013E000006800F000700028F2D1206AB0F5803F5C
:1013F00007D11448406820F40030A168084311491F
:101400004860D4E9080108430E49496821F4741181
:1014100008430C49486001200B490866FFF7C2FBEE
:10142000054607E03DE0FFF7BDFB401B022801D960
:1014300003200FE60348006800F000700028F2D097
:101440002FE00000001002400000424280044242AF
:1014500000700040002014490866FFF7A3FB054612
:1014600006E0FFF79FFB401B022801D90320F1E5AE
:101470000E48006800F000700028F2D111E0E06929
:10148000012800D1E6E50948466806F48031206A63
:10149000814204D106F47011606A814201D00120BA
:1014A000D8E50020D6E500000000424200100240CE
:1014B0007047704710B504460CB9012010BD94F870
:1014C0003D0028B9002084F83C00204600F025F8B3
:1014D000022084F83D00211D206801F019FA012046
:1014E00084F8460000BF84F83E0001213F200155EA
:1014F000402001554120015500BF00BF012084F864
:10150000420043200155442001554520015500BFAC
:10151000012084F83D000020D0E77047014691F893
:101520003D00012801D001207047022081F83D00D4
:101530000868C06840F001000B68D860164B086866
:10154000984213D0154B086898420FD00868B0F144
:10155000804F0BD0124B0868984207D0114B086897
:10156000984203D0104B086898420CD108688068F4
:1015700000F00702062A0CD00868006840F001005D
:101580000B68186005E00868006840F001000B680F
:1015900018600020C8E70000002C01400034014022
:1015A0000004004000080040000C0040704710B5E7
:1015B000044620680069C0F34000D8B12068C068C4
:1015C000C0F34000B0B16FF0020021680861012053
:1015D00020772068806900F0030018B12046FFF7EB
:1015E000E5FF05E0204600F0ADF8204600F0ABF83E
:1015F0000020207720680069C0F38000D8B12068FF
:10160000C068C0F38000B0B16FF0040021680861C9
:10161000022020772068806900F4407018B12046CD
:10162000FFF7C4FF05E0204600F08CF8204600F0EC
:101630008AF80020207720680069C0F3C000D8B184
:101640002068C068C0F3C000B0B16FF00800216826
:101650000861042020772068C06900F0030018B1F9
:101660002046FFF7A3FF05E0204600F06BF8204678
:1016700000F069F80020207720680069C0F30010AE
:10168000D8B12068C068C0F30010B0B16FF010008E
:1016900021680861082020772068C06900F4407044
:1016A00018B12046FFF782FF05E0204600F04AF817
:1016B000204600F048F8002020772068006900F0FC
:1016C000010058B12068C06800F0010030B16FF02F
:1016D000010021680861204600F036F820680069A2
:1016E000C0F3C01058B12068C068C0F3C01030B15A
:1016F0006FF08000216808612046FFF7D9FE20685E
:101700000069C0F3801058B12068C068C0F3801031
:1017100030B16FF0400021680861204600F020F8E9
:1017200020680069C0F3401058B12068C068C0F359
:10173000401030B16FF02000216808612046FFF7AB
:10174000B8FE10BD7047704710B5044603492068C5
:10175000884201D1FFF72CFA10BD0000003401408F
:1017600070477047704700002DE9F84F0446206825
:1017700005682068C668206847694FF00009CA46B6
:1017800005F00F09B9F1000F0AD105F0200038B1BA
:1017900006F0200020B1204601F049F9BDE8F88F9D
:1017A000B9F1000F71D007F0010018B906F490707C
:1017B00000286AD005F0010030B106F4807018B13D
:1017C000206C40F00100206405F0040030B107F007
:1017D000010018B1206C40F00200206405F0020006
:1017E00030B107F0010018B1206C40F00400206413
:1017F00005F0080048B106F0200010B907F001001C
:1018000018B1206C40F008002064206C68B305F02B
:10181000200028B106F0200010B1204601F007F9A1
:1018200020684069C0F3801A206C00F0080010B9ED
:10183000BAF1000F22D0204601F0CEF820684069AE
:1018400000F04000B0B12068406920F040002168FD
:101850004861A06B50B15648A16B4863A06BFEF77E
:10186000F3FE10B1A06B416B88470CE02046FFF7F8
:1018700079FF08E02046FFF775FF04E02046FFF7F8
:1018800071FF0020206489E7FFE7206B012878D1F1
:1018900005F01000002874D006F01000002870D069
:1018A00000BF002000902068006800902068406819
:1018B000009000BF00BF2068406900F04000C0B346
:1018C000A06B006840681FFA80F8B8F1000F2FD0B5
:1018D000A08D40452CDDA4F82E80A06B80692028C7
:1018E0001FD02068C06820F480702168C86020681C
:1018F000406920F00100216848612068406920F0BB
:10190000400021684861202084F83E0000202063C8
:101910002068C06820F010002168C860A06BFEF746
:1019200067FEA08DE28D801A81B22046FFF719FF75
:1019300034E7FFE7A08DE18D401A1FFA80F8E08DB3
:10194000E8B1B8F1000F1AD02068C06820F4907098
:101950002168C8602068406920F001002168486162
:10196000202084F83E00002020632068C06820F01A
:1019700010002168C86041462046FFF7F2FE0DE7DF
:10198000FFE705F0800030B106F0800018B1204676
:1019900001F03EF902E705F0400030B106F04000EA
:1019A00018B1204601F033F8F8E600BFF6E6000073
:1019B000C529000810B504460CB9012010BDA06966
:1019C00000B100E000BF94F83D0028B9002084F881
:1019D0003C00204600F028F8242084F83D002068D0
:1019E000C06820F400502168C860204601F092F8D9
:1019F0002068006920F490402168086120684069EF
:101A000020F02A00216848612068C06840F4005036
:101A10002168C86000202064202084F83D0084F8FC
:101A20003E000020CAE7000010B586B00446002042
:101A300002900390049005903E492068884230D17E
:101A400000BF3D48806940F480403B4988610846BA
:101A5000806900F48040019000BF00BF00BF0846CD
:101A6000806940F0040088610846806900F0040045
:101A7000019000BF00BF4815029002200390032090
:101A8000059002A92D48FEF7DFFE4FF4806002901A
:101A9000002003900120049002A92848FEF7D4FEFC
:101AA00045E027492068884241D100BF2248C069EB
:101AB00040F480202049C8610846C06900F48020B5
:101AC000019000BF00BF00BF0846806940F02000C1
:101AD00088610846806900F02000019000BF00BFC7
:101AE00088150290022003900320059002A9154852
:101AF000FEF7AAFE4FF400700290002003900490BD
:101B000002A91048FEF7A0FE00BF0F49486820F068
:101B1000300040F0E06040F03000486000BF00223C
:101B200005212720FFF7E8F82720FFF7D5F806B0B2
:101B300010BD0000003801400010024000080140C4
:101B4000004800400014014000000140034A0168C1
:101B5000914202D10121024A1170704700380140C0
:101B60001500002010B5034693F83D00202823D12E
:101B700001B10AB9012010BD00BF93F83C00012853
:101B800001D10220F7E7012083F83C0000BF196271
:101B90009A84DA8400201864212083F83D0000BF75
:101BA000002083F83C0000BF1868C06840F0800047
:101BB0001C68E0600020DEE70220DCE7034A0168E1
:101BC000914202D10121024A117070470038014050
:101BD0001400002000BFFEE700B585B00020019092
:101BE00002900390049000BF1A48806940F04000C2
:101BF000184988610846806900F04000009000BFE5
:101C000000BF00BF0846806940F040008861084678
:101C1000806900F04000009000BF00BF0E480290B5
:101C2000012003908003019001A90C48FEF70CFEEF
:101C30004FF40040019001A90848FEF705FE02227A
:101C400000212820FFF758F82820FFF745F805B0B5
:101C500000BD0000001002400000311000180140DB
:101C60002DE9FE4F04460D4616461F46DDF830A00E
:101C70000020029001978046814601A804F0E8FB0D
:101C80008DF808000298C0F3C00028700298C0F3D5
:101C9000031020706946019800F034F981460199DB
:101CA00008440190DDE9001000EB01080198A8EB61
:101CB0000000022800DA06E001A804F0D0FB308022
:101CC0004FF0010900BF4846BDE8FE8F2DE9FF47F0
:101CD00004460D46164699460020039002960027BA
:101CE0008046009002A804F0B3FB8DF80C00039826
:101CF000C0F30310022800D01FE001A9029800F0F1
:101D000001F98046029908440290DDE90110471864
:101D10000298381A022800DA0FE002A804F098FBB3
:101D20008DF80000009800F00100207002A804F077
:101D30008FFB28704FF0010800BF404604B0BDE89B
:101D4000F0872DE9FF5F06460C4617469846DDE909
:101D50000FABDDF838900020039011980290002519
:101D600000200190009002A804F072FB8DF80C0096
:101D70000398C0F30310032800D032E00398C0F3A7
:101D8000C00030700398C0F341002060039800F059
:101D9000010038706946029800F0B4F80190029989
:101DA000084402900099029845182A4602A948461C
:101DB00004F062FB10B10298281A00D511E02068E7
:101DC000002804DD02A804F04AFBA8F800000298ED
:101DD000281ACBF800000298CAF8000001200190F0
:101DE00000BF019804B0BDE8F09F2DE9FE4F054605
:101DF0000E4614461F46DDE90C9B00200290CDF8EC
:101E000004908046824601A804F022FB8DF8080069
:101E10000298C0F30310092800D02CE0694601980D
:101E200000F070F88246019908440190DDE9001045
:101E300000EB01080198A8EB0000022800DA1AE084
:101E400001A804F00CFB2880002020600DE0206831
:101E5000B04202DD4FF0FF3A0DE001A804F0F8FABD
:101E60002268511C216047F8220001984045EED3BA
:101E70004FF0010A00BF5046BDE8FE8FFEB5044694
:101E80000D46164600200290019000272B46224660
:101E900001A902A80096FFF7E3FE07469DF8080097
:101EA0000B2800D101273846FEBD2DE9F843054631
:101EB0000C46012600270020206000BF4FF0FF38AD
:101EC000781C0746042801DD00BF17E001216846A1
:101ED000A8478046B8F1010F00D00FE09DF8001030
:101EE00001F07F01206801FB06002060F6019DF8EB
:101EF000000000F080000028E0D100BF3846BDE8B7
:101F0000F883000070B504460D4603480460294676
:101F10000248FFF7CAFF70BD980000207D3200081C
:101F200030B50246002300BF0846CD1701EB5565CA
:101F3000ED11A1EBC515ECB2CD1701EB5565E9111B
:101F4000002901DD44F0800418465B1C145400296C
:101F5000EADC184630BD2DE9F04104460E46002764
:101F6000B846206828B125682068FEF7A1F9074621
:101F700001E0A56867683046FEF79AF98046474554
:101F800008D13A4631462846FEF799F910B90120A2
:101F9000BDE8F0810020FBE7401C802801DA401CEE
:101FA0000AE0B0F5804F01DA801C05E00349884261
:101FB00001DAC01C00E0001D70470000FFFF1F0099
:101FC0002DE9FC4704460E4615461F46DDF82880DD
:101FD0000020019081460094042E02DA6FF001097E
:101FE00024E0019865F307100190019867F3C3009E
:101FF0000190062D01D1012100E00021019861F33B
:10200000420001909DF80410684604F0FBFE022196
:102010000098FFF785FF0099084400904146684604
:1020200004F0F6FE0098A0EB040900BF4846BDE8A6
:10203000FC8700002DE9FE4305460E461446029536
:1020400000200190009000274FF0FF38204600F05C
:10205000A5F807468146FFF79FFFB04202DD6FF00B
:1020600001088FE000208DF80400019820F0F000B6
:10207000103001909DF8041002A804F0C3FE394608
:102080000298FFF74DFF029908440290207A042835
:1020900008D13EA102A804F0A1FE042102A804F088
:1020A000B1FE07E03BA102A804F098FE032102A8BC
:1020B00004F0A8FE00208DF80000A17E009861F3D6
:1020C00041000090E07E08B1012100E0002100986D
:1020D00061F3820000900098C0F3800058B194F83A
:1020E0003D10009861F3C400009094F83C100098F3
:1020F00061F345100090206C08B9A06C20B10098E5
:1021000020F0800080300090E06C08B9606D20B154
:10211000009820F04000403000909DF8001002A888
:1021200004F070FE218B02A804F072FE02A8D4E92C
:102130000423E16804F084FEE07E58B102A8D4E9EB
:102140000A23616A04F07CFE02A8D4E90D23216B06
:1021500004F076FE0098C0F3C01028B102A8D4E9BC
:102160001123216C04F06CFE0098C0F3801028B19C
:1021700002A8D4E91423E16C04F062FE0298A0EBFB
:10218000050800BF4046BDE8FE8300004D51545491
:10219000000000004D5149736470000070B50446A2
:1021A0000025207A032801D10C2503E0207A042899
:1021B00000D10A25D4E90412E06800F0FFF9801C80
:1021C0000544E07E68B1D4E90A12606A00F0F6F9CD
:1021D000861CD4E90D12206B00F0F0F93044801C0D
:1021E0000544206C08B9A06C30B1D4E91112206C00
:1021F00000F0E4F9801C0544E06C08B9606D30B172
:10220000D4E91412E06C00F0D9F9801C054428468A
:1022100070BD70B504460D460C222946204600F0DC
:10222000D9F870BD2DE9F04F87B005460F469046AE
:102230001C46DDE915B6DDE9109A069500200590EB
:10224000049003900096204612A90EC900F042F8AF
:1022500004900290FFF7A0FEB84203DD6FF001008A
:10226000039033E0059820F0F00030300590059899
:1022700068F3C3000590059864F342000590059843
:1022800069F3000005909DF8141006A804F0BAFD4B
:1022900004990698FFF744FE06990844069006A89C
:1022A00012A90EC904F0CCFD002C03DD514606A88E
:1022B00004F0AEFD324659460698FDF7C3FF069876
:1022C000304406900698401B039000BF039807B067
:1022D000BDE8F08F7FB50546089E002401A807C819
:1022E00000F06CF9801C30440444002D00DDA41C77
:1022F000204604B070BD2DE9FF5F05460E46174627
:102300009846DDE90E9A0395002002900190009016
:1023100000245146484600F046F883460190FFF7F6
:102320003BFEB04202DDA01E009038E000208DF898
:102330000800029820F0F00080300290029867F3C5
:10234000C3000290029820F00600801C02909DF8C5
:10235000081003A804F056FD01990398FFF7E0FD6B
:10236000039908440390414603A804F051FD00245A
:102370000FE004EB44000AEB800C03A89CE80E007D
:1023800004F05EFD109810F8241003A804F03AFD44
:10239000641C4C45EDDB0398401B009000BF009887
:1023A00004B0BDE8F09F2DE9F04105460E46022736
:1023B00000240AE004EB440006EB800393E80700E6
:1023C00000F0FCF8C01C0744641CAC42F2DB384649
:1023D000BDE8F0812DE9FC4104460D46164600207B
:1023E0000190471E0094022D01DA871E15E000209F
:1023F0008DF80400019866F3071001909DF8041011
:10240000684604F0FFFC00210098FFF789FD009961
:10241000084400900098071B00BF3846BDE8FC81C7
:102420008AB00025002600200190029003900490BD
:1024300001F08AFC064634A1304602F0F7F934A1D7
:10244000304602F07BF90A2003F09AFF074639462E
:10245000304602F029F90A2003F092FF0746394678
:10246000304602F045FA0A2003F08AFF0746394653
:10247000304602F09FF90121304602F0D3F8304691
:1024800001F051F928B126A000F05AFC002004F018
:1024900033FA284B002228A1304602F0C9FA04463C
:1024A00014B127A000F04CFC002301222BA13046E0
:1024B00002F0BEFA044614B12AA000F041FC002349
:1024C00002222FA1304602F0B3FA044614B12EA026
:1024D00000F036FC05A8049000208DF8040012E0FE
:1024E0002A466D1C2FA105A800F03AFC0498FDF7C0
:1024F000DFFE039001AA2EA1304601F0A3FD41F2B8
:10250000883004F0CBF9EBE73138383300000000B5
:1025100034372E3134342E3138372E3234370000F0
:102520006D7174745F636F6E6E6563742065727233
:102530000D0A00000D650008746F706963310000BA
:102540006D7174745F737562736372696265207410
:102550006F70696331206572720D0A00746F706963
:10256000633200006D7174745F73756273637269B6
:10257000626520746F70696332206572720D0A00A3
:10258000746F7069633300006D7174745F7375628A
:1025900073637269626520746F706963332065725A
:1025A000720D0A0031303061736B2C25640000001D
:1025B0006D63755F746573740000000037B50024A7
:1025C000009820B10098FDF773FE044600E0019CDE
:1025D00020463EBD10B5FDF7D5FE094A0021094849
:1025E00002F064FE08490860054A0021074802F02D
:1025F0005DFE034A0021064802F058FE10BD0000AF
:10260000087F00084128000800000020E1030008BE
:102610002124000800B585B00020019002900390AD
:10262000049000BF3F48806940F040003D49886108
:102630000846806900F04000009000BF00BF00BF66
:102640000846806940F0100088610846806900F003
:102650001000009000BF00BF00BF0846806940F036
:10266000800088610846806900F08000009000BF0B
:1026700000BF00BF0846806940F02000886108461E
:10268000806900F02000009000BF00BF00BF084636
:10269000806940F0040088610846806900F0040009
:1026A000009000BF00BF012240211F48FEF774FACE
:1026B00001224FF478611D48FEF76EFA0122402195
:1026C0001B48FEF769FA4020019001200290039018
:1026D0000320049001A91448FEF7B6F84FF478607F
:1026E00001900120029003900320049001A90F485B
:1026F000FEF7AAF84FF4404001900020029001201C
:10270000039001A90848FEF79FF84020019001209E
:10271000029003900320049001A90548FEF794F865
:1027200005B000BD0010024000180140001C01402F
:102730000010014010B50B480B4908604FF4E13020
:102740004860002108488160C16001610C2141613D
:1027500000218161C161FFF72DF908B1FDF71EFF6E
:1027600010BD000000380140C004002010B50B4827
:102770000B4908604FF4E13048600021084881604F
:10278000C16001610C21416100218161C161FFF7DC
:1027900011F908B1FDF702FF10BD0000004800402C
:1027A0000405002000BFFEE700BFFEE770B5054648
:1027B0000024002600BF0FE028194FF0FF31FDF77D
:1027C00007FF285D3A2800D107E0285D303806EB86
:1027D000860100EB4106641CEEE700BF00240EE01A
:1027E00028194FF0FF31FDF7F3FE642C06DA285D5F
:1027F000044903F07BFE044802F01AFF641CB44253
:10280000EEDB70BD64320020A400002008B508494A
:102810000968C9084FF47A72B1FBF2F141430091A3
:1028200000BF00BF00994A1E00920029F9D108BDDF
:10283000100000200149086070470000A800002037
:1028400003A000F07DFA00BF012002F0D1FCFBE7FD
:10285000537461727444656661756C745461736B12
:102860000D0A000010B500BF502080F31188BFF39F
:102870004F8FBFF36F8F00BF05F0B4F818B14FF062
:1028800080500449086000BF002080F3118800BF19
:1028900010BD000004ED00E000B58FB0282105A8B0
:1028A000FDF7E9FC14216846FDF7E5FC01200590E1
:1028B00000040690002007900120099002200C904F
:1028C000C1030D914FF4E0110E9105A8FEF7BEFB78
:1028D00008B1FDF763FE0F20009002200190002058
:1028E00002904FF48060039000200490022168461B
:1028F000FEF754FA08B1FDF751FE0FB000BD704766
:1029000010B50248FEF753FE10BD00004805002038
:1029100010B50268204B98420ED0204B98420BD045
:10292000B0F1804F08D01E4B984205D01D4B984205
:1029300002D01D4B984203D122F070024B681A431B
:10294000154B98420ED0154B98420BD0B0F1804FEA
:1029500008D0134B984205D0124B984202D0124B2C
:10296000984203D122F44072CB681A4322F08003CC
:102970004C6943EA040202608B68C3620B6883629D
:10298000054B984202D0054B984201D10B69036375
:102990000123436110BD0000002C014000340140C0
:1029A0000004004000080040000C004010B503483F
:1029B00003F07FFD024802F05DFE10BDD03600201E
:1029C000AC00002070B505466C6A0020E085E0840C
:1029D0002046FEF7C7FE70BD0168C96821F49071FA
:1029E0000268D1600168496921F001010268516102
:1029F000016B012905D10168C96821F01001026845
:102A0000D160202180F83E1000210163704710B58D
:102A100004462068C06820F040002168C86020207B
:102A200084F83D002046FFF7C9F8002010BDF8B536
:102A3000044694F83E00222869D1A068B0F5805F72
:102A40000CD1206950B90025A66A20684068C0F3FF
:102A500008003080A06A801CA06215E0A56A0026EC
:102A6000A068B0F5805F03D0A06828B9206918B9C4
:102A700020684068287004E02068406800F07F000B
:102A80002870A06A401CA062E08D401E80B2E085E4
:102A9000A8BB2068C06820F020002168C8602068BA
:102AA000C06820F480702168C8602068406920F008
:102AB000010021684861202084F83E00206B012835
:102AC0001ED1002020632068C06820F0100021681B
:102AD000C8602068006800F0100010280AD100BF0C
:102AE00000200090206800680090206840680090F6
:102AF00000BF00BFA18D2046FEF733FE03E004E0D7
:102B00002046FFF723F80020F8BD0020FCE7022054
:102B1000FAE7000070B504462168096921F44051C4
:102B2000E2681143226811612269A1681143626958
:102B300041EA02052168C96841F20C6291432943C8
:102B40002268D1602168496921F44071A26911436A
:102B5000226851612D4A2168914202D1FEF71CFA88
:102B600001E0FEF709FA00EBC00101EB0011626819
:102B70009200B1FBF2F100EBC00202EB00126368BD
:102B80009B00B2FBF3F26423B2FBF3F202EBC2034D
:102B900003EB0212A1EB8201322202EB011164224B
:102BA000B1FBF2F101F0F00100EBC00202EB001208
:102BB00063689B00B2FBF3F26423B2FBF3F201EB18
:102BC000021200EBC00101EB001163689B00B1FB36
:102BD000F3F100EBC00303EB00136668B600B3FB30
:102BE000F6F36426B3FBF6F303EBC30606EB03131D
:102BF000A1EB8301322303EB01116423B1FBF3F159
:102C000001F00F0111442268916070BD003801404D
:102C1000014691F83D00212828D18868B0F5805FF1
:102C20000BD1086948B90A6A1088C0F308000B681C
:102C30005860086A801C086205E00B6A581C08622C
:102C400018780B685860C88C401E80B2C88458B988
:102C50000868C06820F080000B68D8600868C06809
:102C600040F040000B68D860002070470220FCE76D
:102C700010B500240848006800F0200038B106486C
:102C8000001D0068C4B20549204603F02FFC04482B
:102C9000FEF76AFD10BD000000380140B8000020BA
:102CA000C004002070B50D48006806680B48006835
:102CB000C56806F0200070B105F0200058B1074843
:102CC00000684068C4B20649204603F00FFC05487E
:102CD00002F0B8FC70BD00BFFCE700000405002056
:102CE000D0360020AC00002070B504460D4609E047
:102CF0000549204603F0E3FB00B970BD29460348AF
:102D000002F0C2FCF4E70000D0360020AC00002046
:102D100010B5024600200CE000BF074B1B681B6883
:102D200003F08003002BF8D0135C034C246863602D
:102D3000401C8842F0DB10BD0405002000BFFEE708
:102D40000FB4054B10B503A9044A029800F060F8CF
:102D500010BC5DF814FB00003D330008B4000020F7
:102D60000FB4084B10B504A902AA039800F050F85C
:102D7000044602A9002000F07CFA204610BC5DF851
:102D800014FB00007332000802480068C0F3022000
:102D9000704700000CED00E010B5002804DB0A07C6
:102DA000130E054A135406E00A07140E034A00F0F6
:102DB0000F031B1FD45410BD00E400E018ED00E029
:102DC000EFF311807047EFF305807047EFF3108049
:102DD000704702E008C8121F08C1002AFAD17047E4
:102DE0007047002001E001C1121F002AFBD170478B
:102DF0005060026041600860704748600160704741
:102E000010B50446D4E90010FFF7F7FF10BD00002D
:102E10002DE9FF4F8DB00F460546002606E0252818
:102E20000BD0DDE90F1290476D1C761C2878002826
:102E3000F5D111B03046BDE8F08F0024A246A1467E
:102E40000122EC4900E0044315F8013F203B02FA5F
:102E500003F00842F7D128782A2810D06FF02F020B
:102E60002878A0F13001092914D80AEB8A0102EB75
:102E7000410144F0020400EB010A6D1CF0E701CFB0
:102E80005FEA000A03D544F40054CAF1000A44F092
:102E900002046D1C28782E2817D115F8010F44F074
:102EA00004042A280ED06FF02F022878A0F13001F8
:102EB00009290AD809EB890102EB410100EB01095C
:102EC0006D1CF2E757F8049B6D1C28786C280FD016
:102ED00006DC4C2817D068280DD06A2814D104E0ED
:102EE000742810D07A280FD10DE044F400140AE0C1
:102EF00044F4801401E044F440146978814202D122
:102F000004F580146D1C6D1C2A786E2A1FD00CDC11
:102F1000632A31D004DC002A8BD0582A11D1A3E0D7
:102F2000642A68D0692A0CD165E0732A2ED004DCAB
:102F30006F2A73D0702A04D19BE0752A6FD0782A4B
:102F40006ED01046DDE90F129047761C50E1C4F3B5
:102F50000250022806D0032809D0042801CF09D046
:102F6000066045E101CFF117C0E9006140E101CF02
:102F700006803DE106703BE117F8040B8DF8000078
:102F800000208DF80100EB46012003E057F804BB58
:102F90004FF0FF3061074FF0000102D40DE008F15F
:102FA0000101884649450FDA8045F8DB1BF8081017
:102FB0000029F4D108E008F1010188468142FADBDA
:102FC0001BF808100029F6D1DDE90F23AAEB080051
:102FD0008146214600F036F9304400EB080604E053
:102FE000DDE90F121BF8010B9047B8F10108F7D289
:102FF00021464846F7E00A21C4F302534FF0000B84
:103000000891022B04D001CFC117032B09D00AE08D
:10301000FF1D27F00707F7E8020108E032E01FE094
:1030200020E000B2C117042B01D140B2C117031E2A
:1030300071F1000307DA4FF0000CD0EB0C006CEBE1
:1030400001012D2302E0230504D52B238DF8243024
:10305000012303E0E30701D02023F7E7984658E077
:103060000A2110E010210EE010204FF0000B089014
:103070000CE010214FF0000B44F004044FF008095D
:10308000089103E008214FF0000B0891C4F30253AC
:10309000022B04D001CF0021032B06D006E0FF1D38
:1030A00027F00707F7E8020103E080B2042B00D104
:1030B000C0B24FF0000823072BD5702A07D0DDF8E7
:1030C00020C08CF0100C5CEA0B0C05D00EE0402305
:1030D0008DF82430012308E050EA010306D03023A4
:1030E0008DF824308DF8252002239846DDF820C085
:1030F0008CF0080C5CEA0B0C0BD150EA010301D1F7
:10310000630706D530238DF824304FF00108A9F16C
:103110000109582A04D038A20B9208AA0A920BE09F
:103120003AA2F9E75B46089AFDF7D8F80B9B9B5C3F
:103130000A9A521E0A92137050EA0102F2D10A98BA
:10314000ADEB000000F1200B600702D524F48034C1
:1031500001E04FF00109D94502DDA9EB0B0000E0C9
:10316000002000EB0B0141440890AAEB010AE003A8
:1031700006D4DDE90F232146504600F063F80644EB
:103180004FF0000908E009A911F80900DDE90F1264
:10319000904709F10109761CC145F4DBE0030CD529
:1031A000DDE90F232146504600F04CF8064404E0C8
:1031B000DDE90F1230209047761C0899481E0890D0
:1031C0000029F5DC08E00A980A990078491C0A9160
:1031D000DDE90F129047761CBBF10001ABF1010B4A
:1031E000F1DC21465046DDE90F2300F019F80644D2
:1031F0006D1C1BE609280100303132333435363777
:103200003839616263646566000000003031323332
:1032100034353637383941424344454600000000D2
:103220002DE9F041044600251E461746880404D4C3
:1032300005E039462020B0476D1C641EF9D52846AC
:10324000BDE8F0812DE9F041044600251E46904678
:10325000C80301D5302700E02027880404D505E005
:1032600041463846B0476D1C641EF9D52846BDE876
:10327000F0810A68531C0B601070704710B502464D
:10328000002309E0064800680078107004480068D0
:10329000401C034C20605B1C8B42F3DB084610BDD6
:1032A000980000203EB505460C46206CC068216C95
:1032B0000978064B1122CDE90041029004A10EA02D
:1032C000FFF73EFD18A0FFF73BFD3EBD447F000821
:1032D0002E2E5C4D515454436C69656E745C6D7157
:1032E0007474636C69656E745C6D717474636C691D
:1032F000656E742E6300000025733A2564202573E3
:1033000028292E2E2E0A746F7069633A2025732C9B
:1033100020716F733A2025642C200A6D65737361E8
:1033200067653A25730000000A00000010B50446E6
:103330002046FCF77FFFFCF773FF10BD13B50C466A
:10334000002007490870012269460648FEF70AFC7A
:1033500000BF034800780028FBD000981CBD000087
:1033600014000020C0040020FDF72EFCFFF794FAA3
:10337000FFF750F9FFF7DEF9FFF7F8F9FEF72CFC3D
:10338000FFF714FBFDF7E2F8FDF7F4F805A0FFF7EF
:10339000D7FC01F049FFFFF71DF901F065FF00BF01
:1033A000FEE7000048656C6C6F20576F726C6421FB
:1033B0000D0A00002DE9F04706460F4690461D46CF
:1033C000DDF82090002405F1200001F0DDFF044627
:1033D00014B90020BDE8F087204600F0E3FC04F1BA
:1033E0000800F16A02F08FF9E760A4F810802583E5
:1033F00004F12000E061C4F81490316A2A46E069C3
:10340000FCF720FF2046E5E710B504462CB1204626
:1034100000F0B8FC204601F0C4FF10BD0146402278
:10342000886AB2EB102F01DC012070470020FCE716
:103430003EB505460C4602A8E96A02F064F904F1BB
:103440000800E96A02F05FF905F1500001F0B7FFEA
:10345000228BE169286AFCF7F5FE218B02AA284637
:1034600001F0A9F805F1500001F0B1FF208AE168F0
:10347000064B40F26312CDE9001005A10EA0FFF744
:103480005FFC1AA0FFF75CFC3EBD0000587F0008FF
:103490002E2E5C4D515454436C69656E745C6D7195
:1034A0007474636C69656E745C6D717474636C695B
:1034B000656E742E6300000025733A256420257321
:1034C00028292E2E2E20726573656E6420256420B7
:1034D0007061636B6167652C207061636B65745FFD
:1034E0006964206973202564200000000A00000040
:1034F0002DE9F04705468846914605F1600000F049
:1035000054FC10B10020BDE8F0872C6E26680AE05C
:103510002746388A484504D1F868404501D1012042
:10352000F1E73446266805F160008442F0D10020BE
:10353000E9E72DE9F84F04460E4617469846DDF8B0
:1035400028904FF0000A00253A4631462046FFF702
:10355000CFFF18B16FF01600BDE8F88F43463A462A
:1035600031462046CDF80090FFF724FF054615B9F7
:103570006FF00200F0E7204600F07EF804F16001F1
:10358000284600F0F6FB5046E6E72DE9F0410646F6
:10359000884606F1600000F008FC20B9304600F0D3
:1035A00067FA012801D0BDE8F081356E2F6830E060
:1035B0002C4604F1080002F0B3F818B9B8F1010F75
:1035C00000D124E0E068042808D0E068052805D090
:1035D000E068062802D0E068072804D1214630467A
:1035E000FFF726FF13E0E068092802D0E0680B2807
:1035F00006D1606920B1606900F0F5FB00206061D0
:103600002046FFF701FF304601F06EFA00BF3D464D
:103610002F6806F160008542CAD100BFC3E72DE9DB
:10362000F0470646894692461F4606F1600000F0C4
:10363000BCFB10B10020BDE8F087346ED4F80080E8
:1036400014E02546288A504502D1E868484500D054
:1036500009E00FB1686938602846FFF7D5FE3046AB
:1036600001F042FA00BF4446D4F8008006F1600041
:103670008442E6D10020DEE710B5044604F1540090
:1036800001F09DFE0121A06A01EB102161F31F20D2
:10369000A06204F1540001F09AFE10BD2DE9F04142
:1036A000044604F1600000F080FBC0B9256E2E686E
:1036B0000FE02F46384600F065FB786920B1786945
:1036C00000F091FB00207861384601F06AFE354633
:1036D0002E6804F160008542EBD100F05AFB94F8AB
:1036E0002800A06204F1580000F05FFBA0B9A56DAE
:1036F0002E680BE0A846404600F044FB0020C8F8C6
:103700000C00404601F04DFE35462E6804F158008D
:103710008542EFD100F03DFB4FF0FF31204600F035
:10372000FFFFBDE8F08110B50446204600F002F826
:1037300010BD000070B59AB0044600252E1F002071
:10374000189058226B4902A8FCF77CFD14B9A81EFA
:103750001AB070BD204600F08BF9012801D100207D
:10376000F6E70023D4E90312A06E01F00AFD064635
:10377000A06E01F0FAFC064636B1A06E20B1A06E34
:1037800001F01AFD3046E3E75B4B40F2DB325BA110
:1037900064A0FFF7D5FA6DA0FFF7D2FAA08CADF8C0
:1037A000200094F82800C0F340008DF8220094F81F
:1037B0002800C0F303108DF81000206805906068A1
:1037C0001290A068159094F8280000F0010098B1BC
:1037D00094F8280000F001008DF82300A06C8168A7
:1037E0000E91A06C01788DF84510A06C41788DF891
:1037F0004410A06C41680B91A08C4FF47A7200FBCE
:1038000002F104F1740001F07EFF04F1500001F0B8
:10381000D6FD02AA616B206AFEF70CFC051E00DCD7
:1038200023E019A8E16A01F06EFF19AA2946204693
:1038300000F0C1FE061E00D017E019AA02212046A2
:1038400001F0B8FA02280DD118A9481C236BE269CF
:10385000FEF73CFA012802D19DF8606004E06FF0A9
:10386000030601E06FF0030600BF002E34D1E06EC6
:10387000002828D1322005214FF480532246CDE97B
:103880000010334933A001F011FFE066E06E50B143
:103890000121204600F044FFE06E01F02DFFE06EB4
:1038A00001F024FF13E0A06E01F086FC6FF0030628
:1038B000114B40F2114211A12BA0FFF741FA23A0B6
:1038C000FFF73EFA03E00121204600F029FFA06A3D
:1038D00020F00C00A06206E0A06E01F06DFC00215B
:1038E000204600F01DFF04F1500001F070FD30464D
:1038F0002EE70000EC7F0008D27F00082E2E5C4DE2
:10390000515454436C69656E745C6D717474636C6E
:1039100069656E745C6D717474636C69656E742E28
:103920006300000025733A256420257328292E2E74
:103930002E206D71747420636F6E6E6563742073D6
:103940007563636573732E2E2E0000000A0000005D
:10395000B14F00086D7174745F7969656C645F7450
:10396000687265616400000025733A256420257340
:1039700028292E2E2E206D717474207969656C644F
:103980002074687265616420637265617420666189
:10399000696C652E2E2E00002DE9F84F05460C4669
:1039A000164601274FF000084FF0040A002020605F
:1039B00000BF4FF0FF3908F101008046042801DD07
:1039C00000BF1AE0334601226946A86E01F0E6FB0B
:1039D0008146B9F1010F00D00FE09DF8001001F011
:1039E0007F01206801FB07002060FF019DF80000B7
:1039F00000F080000028DCD100BF4046BDE8F88F11
:103A00002DE9F04391B004460D4616464FF0FF38BD
:103A10002946204600F030F807465FB13246294675
:103A2000684600F050FA694620463A6990474FF0E0
:103A300000080DE0E06F58B132462946684600F0B4
:103A400042FA69462046E26F90474FF0000800BFF7
:103A5000F068FCF72DFC81464946F068FCF70BFC4A
:103A6000D5E90110FCF707FC404611B0BDE8F08332
:103A7000014691F94C0070472DE9F04106460F468A
:103A8000B56DD5F8008012E02C46E06860B138468C
:103A9000E168FEF760FA20B93946E06801F03EF8C7
:103AA00010B12046BDE8F0814546D5F8008006F10A
:103AB00058008542E8D10020F4E710B5044604F12F
:103AC000540001F07CFCE08C4FF6FE71884201D17D
:103AD000012001E0E08C401CE08404F1540001F07E
:103AE00076FCE08C10BD000010B504460C2001F0FF
:103AF0004BFCA066A06E60B92F4B40F255422FA13F
:103B000038A0FFF71DF941A0FFF71AF96FF0020086
:103B100010BD0021A06E0160416081600120E08441
:103B2000A06A20F00200A062A06A20F00100A0625A
:103B30004FF47A60E062002084F84C00A06A20F024
:103B40000C00A06294F82800A0620020E0632064CA
:103B500060646420A084A06A20F0F0004030A0627D
:103B60004FF47A70A0630020A064A061A067E067B2
:103B70004FF48061204600F047FC4FF480612046FE
:103B800001F032F904F1580000F00CF904F1600082
:103B900000F008F904F1500001F009FC04F15400B0
:103BA00001F005FC04F1700001F0B7FD04F17400B0
:103BB00001F0B3FD0020ABE76F8000082E2E5C4DB6
:103BC000515454436C69656E745C6D717474636CAC
:103BD00069656E745C6D717474636C69656E742E66
:103BE0006300000025733A256420257328292E2EB2
:103BF0002E206D616C6C6F63206D656D6F72792026
:103C00006661696C65642E2E2E0000000A000000BB
:103C100070B505462846FFF72BFF0446032C02D15A
:103C20006FF0170070BD012C02D06FF00D00F9E7A6
:103C30000020F7E770B506460C4600252046FCF745
:103C400037FB05463046FCF733FBA84201D0002085
:103C500070BD2A4621463046FCF731FB08B90120E9
:103C6000F6E70020F4E70000F8B5044600252046FA
:103C7000FFF7CEFF05460DB12846F8BD04F17000F0
:103C800001F04EFD28B904F1740001F049FD00284F
:103C90002FD094F82800C0F3810098B1164B4FF450
:103CA000956216A11FA0FFF74BF826A0FFF748F872
:103CB000A06E01F081FA0221204600F031FD6FF084
:103CC0000D0516E0616B206AFEF7A3FA0646002E8A
:103CD0000EDD6A463146204600F06DFC051E07D118
:103CE00094F828008008401CA16A60F38301A16257
:103CF00000BF2846C1E70000B68100082E2E5C4DAB
:103D0000515454436C69656E745C6D717474636C6A
:103D100069656E745C6D717474636C69656E742E24
:103D20006300000025733A256420257328292E2E70
:103D30002E2070696E67206F75747374616E64698C
:103D40006E6700000A00000070B5802001F01CFBC7
:103D500005460DB9002070BD80212846FCF78BFA7E
:103D60002846FFF7C1FE04460CB10020F3E72846C1
:103D7000F1E770B505460C46224628466168FFF714
:103D800037F870BD10B50446D4E90010FFF735F8D8
:103D900010BD10B504462046FFF732F8204600F06B
:103DA00001F810BD00604060704701460868884215
:103DB00001D1012070470020FCE72DE9F0410546C4
:103DC0000E4617460024142001F0DEFA044614B90A
:103DD0000020BDE8F0812046FFF7E4FF267227614E
:103DE000E5602046F5E710B504462CB12046FFF704
:103DF000C9FF204601F0D5FA10BD00002DE9FC41B5
:103E000005460F4605F15800FFF7CFFF10B100201F
:103E1000BDE8FC81AC6DD4F800801AE02646F0685D
:103E2000A0B1F968F068FFF705FF78B1F868F168AC
:103E30000B4B40F2CF12CDE900100AA11348FEF758
:103E40007FFF13A0FEF77CFF0120E1E74446D4F892
:103E5000008005F158008442E0D10020D8E700003E
:103E6000707F00082E2E5C4D515454436C69656E72
:103E7000745C6D717474636C69656E745C6D71747F
:103E800074636C69656E742E630000009082000894
:103E90000A00000070B505460C4605B114B96FF074
:103EA000010070BD21462846FFF7A8FF20B120463B
:103EB000FFF799FF0020F4E705F158012046FFF7CE
:103EC00058FF0020EDE72DE9F04105460C46164667
:103ED00060683F2801DA606800E03F2007463A4604
:103EE0002846A168FCF7AEF90020E8552E64BDE82D
:103EF000F0812DE9F0470446884615460026002744
:103F0000B146206BA84201D9A94601E0D4F830900F
:103F100000BF404601F013FC824653464A46E16921
:103F2000A06E01F03BF907464FB13E44A81B216B40
:103F3000884202D3D4F8309001E0A5EB0609AE42E6
:103F400001DA002FE5D1BDE8F0870000F8B504469E
:103F50000E4600250020009032466946204600F0BB
:103F6000C5FA054600980E2838D2DFE800F007377A
:103F70001125122B2C133719371F373215F1080F63
:103F800005D11C48FEF7DCFE1BA0FEF7D9FE26E09B
:103F90002BE000BF3146204600F030F805461EE019
:103FA0003146204600F0EAFC054618E0314620463E
:103FB00000F0D6FE054612E03146204600F07AF9C0
:103FC00005460CE000BF3146204600F0F0F90546FA
:103FD00005E0A06A20F00C00A06200E000BF00BF76
:103FE0002046FFF741FE054600BF05B9009D284663
:103FF000F8BD00002C8200080A0000007FB50446CE
:104000000E464FF0FF352046FFF702FE054615B17C
:10401000284604B070BD206B009003AA02A901A835
:10402000E369FDF71DFE012801D06FF008050023AC
:10403000BDF80C209DF804102046FFF7F0FA054665
:104040002846E6E72DE9F0418CB00546884614463F
:104050000026771E0020089009900A90CDF8208055
:104060002846FFF705FD012802D06FF00D0765E037
:10407000E06828B1A06818B9E068FCF719F9A060F9
:10408000A068696B88420AD93CA0FEF759FE4BA094
:10409000FEF756FE6FF007000CB0BDE8F08105F1A9
:1040A000500001F08CF9207850B12846FFF7B6F99E
:1040B00010B16FF0150741E02846FFF7FEFCA08025
:1040C000D4E90210CDE9050108A807C802AB07C36F
:1040D000A0886178CDE9001023780022696B286AF6
:1040E000FEF7A0F80646002E00DC27E00BAA3146BA
:1040F000284600F060FA071E00D01FE02078E0B1EB
:104100000121284600F0CEFB2078012809D10020AB
:10411000B3B20090A28804212846FFF70AFA0746A6
:104120000BE02078022808D10020B3B20090A288CA
:1041300005212846FFF7FDF9074600BF0020A060D3
:1041400005F1500001F043F917F1160F02D017F1F5
:10415000030F10D11A4B4FF4B4621AA123A0FEF73B
:10416000EFFD16A0FEF7ECFDA86E01F025F8022188
:10417000284600F0D5FA38468EE700007075626C6C
:10418000697368207061796C6F6164206C656E2062
:104190006973206973206772656174657220746841
:1041A000616E20636C69656E742077726974652036
:1041B0006275666665722E2E2E0000000A000000F1
:1041C000D38100082E2E5C4D515454436C69656EAA
:1041D000745C6D717474636C69656E745C6D71741C
:1041E00074636C69656E742E6300000025733A2554
:1041F0006420257328292E2E2E2074686572652070
:104200006973206E6F7420656E6F756768206D65C9
:104210006D6F727920737061636520746F207265B1
:10422000636F72642E2E2E002DE9FC4104460D466C
:1042300017460026B04604F1500001F0C0F8052FE3
:1042400002D0062F1FD115E0009500230622616BD6
:10425000206AFDF7B5FE06460020B3B22A460721C4
:1042600000902046FFF765F98046B8F1000F00D0B6
:1042700019E00BE0009500230722616B206AFDF72F
:104280009FFE064602E06FF009080CE000BF002E1A
:1042900002DC6FF00A0806E001AA3146204600F071
:1042A0008AF9804600BF04F1500001F090F84046C2
:1042B000BDE8FC81F0B58DB004460F460025002610
:1042C000002008902046FFF7A3FC064616B13046B2
:1042D0000DB0F0BD08AA09ABE169206BCDE9013250
:1042E000CDE903100AA807ABD21F05A900900E382C
:1042F000FDF727FD012802D06FF01000E8E70598D0
:10430000C0B28DF818009DF8180078B304F1500081
:1043100001F055F89DF8180001280AD1BDF81C00DD
:10432000009000230422616B206AFDF749FE0546D8
:104330000DE09DF81800022809D1BDF81C0000907E
:1043400000230522616B206AFDF73AFE0546002D29
:1043500002DC6FF0110605E03A462946204600F0DF
:104360002AF9064604F1500001F031F8002E01DA76
:104370003046ADE79DF81800022805D006AA0AA924
:104380002046FFF73DFB10E00020ABB20090BDF8E7
:104390001C2006212046FFF7CCF80646173020B136
:1043A00006AA0AA92046FFF72BFB304690E77FB507
:1043B00004460E464FF0FF352046FFF729FC054620
:1043C00015B1284604B070BD206B009003AA02A965
:1043D00001A8E369FDF744FC012802D06FF0080052
:1043E000F0E79DF80420BDF80C102046FFF71CFFF5
:1043F00005460023BDF80C209DF804102046FFF769
:104400000EF905462846DDE770B504460D465CB951
:10441000184B40F2254218A121A0FEF791FC28A0DC
:10442000FEF78EFC002070BDE06910B1E06900F07D
:10443000B8FF2563206B022804D96FF07041206B10
:10444000884202D34FF480602063206B00F09CFF11
:10445000E061E06960B9074B40F2334206A119A060
:10446000FEF76EFC16A0FEF76BFC6FF00200DAE7B9
:10447000206BD8E7448000082E2E5C4D51545443E5
:104480006C69656E745C6D717474636C69656E746F
:104490005C6D717474636C69656E742E63000000EA
:1044A00025733A256420257328292E2E2E20636833
:1044B00065636B20666F72206572726F722E0000EA
:1044C0000A00000025733A256420257328292E2E22
:1044D0002E206D616C6C6F63207265616420627563
:1044E00066206661696C65642E2E2E002DE9FC47FE
:1044F00004460E461746002001900125009016B98B
:10450000801EBDE8FC873846E16A01F0FCF83846B9
:1045100001F015F981464B462A46E169A06E00F08C
:104520003DFE8046A84502D06FF00600E9E7384618
:1045300001F005F981464A4669462046FFF72CFA04
:10454000E16948190099FDF7EBFC054400982844FF
:10455000216B884207D939462046009AFFF7C9FCEB
:104560006FF00700CDE70098002811DD384601F014
:10457000E6F88146E26951194B46A06E009A00F0B8
:104580000DFE80460099884202D06FF00600B8E721
:10459000E06900788DF804000198C0F303103060E2
:1045A000A08C4FF47A7200FB02F104F1740001F068
:1045B000AAF80020A5E72DE9F04704460D46174666
:1045C0004FF0000800263846E16A01F09CF810E040
:1045D000384601F0B4F88146226A91194B462A46C2
:1045E000A06E00F0F6FD8046B8F1000F00DC07E099
:1045F0004644AE4204DA384601F092F80028E7D08B
:1046000000BFAE420BD1A08C4FF47A7200FB02F1D6
:1046100004F1700001F077F80020BDE8F0876FF03A
:104620001200FAE770B504460D465CB90A4B4FF428
:1046300091620AA113A0FEF783FB1AA0FEF780FB8C
:10464000002070BDA06A65F34100A06294F82800C4
:10465000C0F34000F5E70000218100082E2E5C4DDC
:10466000515454436C69656E745C6D717474636C01
:1046700069656E745C6D717474636C69656E742EBB
:104680006300000025733A256420257328292E2E07
:104690002E20636865636B20666F72206572726F8F
:1046A000722E00000A00000070B504460D465CB989
:1046B000074B40F27F4207A110A0FEF741FB17A075
:1046C000FEF73EFB002070BD25602068FBE7000080
:1046D000798000082E2E5C4D515454436C69656EF0
:1046E000745C6D717474636C69656E745C6D717407
:1046F00074636C69656E742E6300000025733A253F
:104700006420257328292E2E2E20636865636B2074
:10471000666F72206572726F722E00000A000000D0
:1047200070B504460D4604F1540000F048FE84F8CC
:104730004C5004F1540000F04AFE70BD70B50446C0
:104740000D465CB9074B40F2824207A110A0FEF76C
:10475000F7FA17A0FEF7F4FA002070BDE560E068F4
:10476000FBE70000B18000082E2E5C4D51545443ED
:104770006C69656E745C6D717474636C69656E747C
:104780005C6D717474636C69656E742E63000000F7
:1047900025733A256420257328292E2E2E20636840
:1047A00065636B20666F72206572726F722E0000F7
:1047B0000A00000070B504460D465CB9074B40F294
:1047C000814207A110A0FEF7BBFA17A0FEF7B8FAC6
:1047D000002070BDA560A068FBE700009F80000876
:1047E0002E2E5C4D515454436C69656E745C6D7132
:1047F0007474636C69656E745C6D717474636C69F8
:10480000656E742E6300000025733A2564202573BD
:1048100028292E2E2E20636865636B20666F722018
:104820006572726F722E00000A00000070B50446B7
:104830000D465CB9074B40F2834207A110A0FEF77A
:104840007FFA17A0FEF77CFA002070BD2561206971
:10485000FBE70000BF8000082E2E5C4D51545443EE
:104860006C69656E745C6D717474636C69656E748B
:104870005C6D717474636C69656E742E6300000006
:1048800025733A256420257328292E2E2E2063684F
:1048900065636B20666F72206572726F722E000006
:1048A0000A0000003EB504460D46206A0290206AC8
:1048B000019000200090206A10B96FF018003EBDF2
:1048C00002A801F0C5FD8DF800000098C0F30310A8
:1048D000032802D06FF01800F1E7009865F3C300D9
:1048E00000909DF8001001A802F08CFA0020E6E785
:1048F00070B504460D465CB9074B4FF4906207A1B2
:1049000010A0FEF71DFA17A0FEF71AFA002070BDDE
:1049100065606068FBE700008C8000082E2E5C4D0F
:10492000515454436C69656E745C6D717474636C3E
:1049300069656E745C6D717474636C69656E742EF8
:104940006300000025733A256420257328292E2E44
:104950002E20636865636B20666F72206572726FCC
:10496000722E00000A00000010B504464FF47A7160
:1049700004FB01F000F0F0FE10BD0000F0B587B0C0
:1049800004460F464FF0FF350020069005900026A4
:1049900003902046FFF73CF9054615B1284607B0BD
:1049A000F0BD216BE06905AB06AACDE9000101214C
:1049B00004A8FDF71AFA012802D06FF00C00EEE708
:1049C0000598802801D1012000E00020064603ABB5
:1049D000BDF8102009212046FEF721FE0546039868
:1049E00010B96FF00200DAE75EB10398FFF7FBF948
:1049F00007A0FEF7A5F90DA0FEF7A2F96FF00E00D3
:104A0000CDE720460399FFF745FA05462846C6E755
:104A100073756273637269626520746F7069632075
:104A20006661696C65642E2E2E0000000A0000008D
:104A30002DE9FF4788B004460D461E466FF0130966
:104A4000002700200490059006900495804620469B
:104A5000FFF70EF8012804D06FF00D000CB0BDE890
:104A6000F0872046FFF729F8824604F1500000F055
:104A7000A6FC0AA804A90122CDE900210290534610
:104A80000022616B206AFDF736FC0746002F00DC30
:104A900021E007AA39462046FFF78DFDB0F1000955
:104AA00000D018E006B90F4E32469DF8281028466F
:104AB000FFF783F98046B8F1000F02D16FF00209C9
:104AC00009E0BBB2524609212046CDF80080FEF72E
:104AD00030FD814600BF04F1500000F078FC4846EC
:104AE000BCE70000A532000870B50446002504F1BB
:104AF000540000F064FCA06A000A002800DC07E013
:104B00000121A06AC1EB102161F31F20A06200BF48
:104B100004F1540000F05BFC284670BD70B50546FA
:104B20000C462946A2686068831825E010782F2873
:104B300003D108782F2800D022E008782B2807D04E
:104B40000878232804D008781678B04200D017E0FF
:104B500008782B280AD1501C02E0561C3246701CE3
:104B6000984202D206782F2EF7D103E00878232846
:104B700000D15A1E491C521C087808B19A42D5D35C
:104B800000BF9A4203D1087808B9012070BD002007
:104B9000FCE7000038B505466FF003042846FEF731
:104BA00067FF012803D02846FEF7BDFD04463CB947
:104BB000284600F05BF8044600212846FEF7E5FC95
:104BC0006042064B40F2592205A100900EA0FEF76C
:104BD000B7F81AA0FEF7B4F8204638BD9F7F00084A
:104BE0002E2E5C4D515454436C69656E745C6D712E
:104BF0007474636C69656E745C6D717474636C69F4
:104C0000656E742E6300000025733A2564202573B9
:104C100028292E2E2E206D717474207472792063D1
:104C20006F6E6E65637420726573756C7420697342
:104C3000202D307825303478000000000A00000074
:104C400070B504460025A06F18B12046A26FA16977
:104C500090472046FFF79EFF05462DB1A06BFFF75A
:104C600083FE6FF00F0070BD2846FCE72DE9F04190
:104C700005466FF01408184B40F23B2217A121A003
:104C8000FEF75EF829A0FEF75BF805F15800FFF784
:104C90008CF810B10020BDE8F081AC6D276815E0FC
:104CA0002646327A2846D6E90313FFF7C1FE80462E
:104CB000163048B9084B40F2452208A11CA0FEF767
:104CC0003FF81AA0FEF73CF83C46276805F158006B
:104CD0008442E5D14046DEE78A7F00082E2E5C4DF7
:104CE000515454436C69656E745C6D717474636C7B
:104CF00069656E745C6D717474636C69656E742E35
:104D00006300000025733A256420257328292E2E80
:104D10002E206D71747420747279207265737562BF
:104D2000736372696265202E2E2E00000A00000057
:104D300025733A256420257328292E2E2E206D7187
:104D400074742061636B2068616E646C6572206EA0
:104D5000756D20746F6F206D756368202E2E2E0088
:104D60007CB504460E464FF0FF35002000902046EB
:104D7000FEF74EFF05460DB128467CBD6846226B06
:104D8000E169FDF77BF8012802D06FF00B00F4E732
:104D900001ABBDF800200B212046FEF740FC054684
:104DA000019810B96FF00200E7E70198FFF71BF8D0
:104DB0002846E2E72DE9F04107460E4614464FF03B
:104DC000FF3500BF204600F0ABFC00B108E02146F3
:104DD0003846FFF7BBF80546B54201D0002DF1DAA1
:104DE00000BF2846BDE8F08170B504460D465CB9A9
:104DF000184B40F23B4218A121A0FDF7A1FF28A0CB
:104E0000FDF79EFF002070BD206A10B1206A00F0FF
:104E1000C8FA6563606B022804D96FF07041606B5B
:104E2000884202D34FF480606063606B00F0ACFA9C
:104E30002062206A60B9074B40F2494206A119A0DE
:104E4000FDF77EFF16A0FDF77BFF6FF00200DAE7AB
:104E5000606BD8E7598000082E2E5C4D51545443A6
:104E60006C69656E745C6D717474636C69656E7485
:104E70005C6D717474636C69656E742E6300000000
:104E800025733A256420257328292E2E2E20636849
:104E900065636B20666F72206572726F722E000000
:104EA0000A00000025733A256420257328292E2E38
:104EB0002E206D616C6C6F6320777269746520625F
:104EC0007566206661696C65642E2E2E00000000F8
:104ED000F8B506460F4600240EB9601EF8BD07B9A6
:104EE000F76A3946684600F00EFC30E03046FEF7BF
:104EF000BFFD0546032D02D16FF01700EEE7012D2F
:104F000009D03046FFF79CFE044614F1100F01D182
:104F10002046E3E71BE069463046FFF717F80446F2
:104F2000002C04DB01213046FEF72FFB0EE014F1CC
:104F30000E0F0AD10A4B40F295320AA113A0FDF7D9
:104F4000FFFE1AA0FDF7FCFE00E005E000BF68468A
:104F500000F0E6FB0028C9D000BF2046BEE70000F5
:104F6000B57F00082E2E5C4D515454436C69656E1C
:104F7000745C6D717474636C69656E745C6D71746E
:104F800074636C69656E742E6300000025733A25A6
:104F90006420257328292E2E2E206D717474206EA6
:104FA0006F7420636F6E6E65637400000A0000000A
:104FB0002DE9F041064634464FF000082046FEF742
:104FC00057FD0746012F0CD01E4B40F2A7321EA101
:104FD00027A0FDF7B5FE34A0FDF7B2FEE06E00F0AD
:104FE0008CFB25E02046E16AFFF772FF054615F1CC
:104FF000180F10D1134B40F2AE3213A12BA0FDF7C6
:105000009FFE29A0FDF79CFEA06E00F0B4F820469C
:10501000FEF744FB0DE015F1100F09D1094B40F2EA
:10502000B33209A12BA0FDF78BFE1FA0FDF788FE70
:10503000D8E7D4F86C800020E066404600F02CFBF6
:10504000BDE8F081C07F00082E2E5C4D51545443C2
:105050006C69656E745C6D717474636C69656E7493
:105060005C6D717474636C69656E742E630000000E
:1050700025733A256420257328292E2E2E2C206D89
:10508000717474206973206E6F7420636F6E6E6527
:105090006374656420746F2074686520736572762C
:1050A00065722E2E2E0000000A00000025733A259E
:1050B0006420257328292E2E2E2C206D71747420C7
:1050C000636C65616E2073657373696F6E2E2E2E2F
:1050D0002E00000025733A256420257328292E2EE2
:1050E0002E2C206D717474207265636F6E6E656313
:1050F000742074696D656F75742E2E2E2E0000005D
:1051000010B504460022D4E9000100F079F9A0604E
:10511000A068002801DAA06810BD0020FCE710B5E7
:10512000044614B1A06800F05BF94FF0FF30A060B6
:1051300010BD2DE9F04104460D4616461F463B467C
:1051400032462946A06800F001FABDE8F0812DE959
:10515000F04104460D4616461F463B463246294658
:10516000A06800F009FABDE8F08110B504462046B9
:10517000FFF7C6FF10BD10B504462046FFF7CFFF6E
:1051800010BD10B5044614B96FF0010010BD4FF00A
:10519000FF30A060216062600020F7E72DE9F04158
:1051A00004460D4616461F463B46324629462046D3
:1051B000FFF7BFFFBDE8F08110B50446A0680028E6
:1051C00002DB2046FFF7D7FF002020606060A06070
:1051D00010BD2DE9F04104460D4616461F463B46DC
:1051E000324629462046FFF7B2FFBDE8F0810000B5
:1051F00070B50546FDF7E7FD48B9FDF7E7FD30B9A5
:1052000008480068022805D1FDF7DAFD10B16FF0FB
:10521000050404E0002415B1284601F03FFB2046B8
:1052200070BD00006C00002010B5FDF7CCFD48B942
:10523000FDF7CCFD30B90B480068022805D1FDF719
:10524000BFFD10B16FF0050409E00648006820B901
:10525000012004490860002401E04FF0FF3420469B
:1052600010BD00006C00002010B5FDF7ACFD48B982
:10527000FDF7ACFD30B90C480068022805D1FDF7F8
:105280009FFD10B16FF005040CE00748006801288D
:1052900006D102200449086001F090FC002401E0DE
:1052A0004FF0FF34204610BD6C0000202DE9F04780
:1052B00086B080468946144600200490FDF783FDA1
:1052C00000285DD1FDF782FD002859D12D480068E6
:1052D000022803D1FDF774FD002851D1B8F1000F69
:1052E0004ED080261825002005900DF1140A471E87
:1052F00044B3206808B1D4F800A0A06900B1A56942
:105300002DB1382D03D8207900F0010018B100200C
:1053100006B0BDE8F087606908B160698608A068DA
:1053200040B1E0685C2805D3206918B1606908B114
:10533000012708E0A06830B9E06820B9206910B9F9
:10534000002700E00027012F0CD12169A0684B46FF
:105350003246CDE9005102905146404602F0D0FA63
:1053600004900DE067B904A8B2B24B465146CDE9AE
:105370000050404602F092FA012801D0002004902B
:105380000498C5E76C00002070B50446204600F084
:105390001BFF05461DB121462846FAF76CFF28463B
:1053A00070BD10B50446204601F0A2F910BD10B53D
:1053B0000446012001F0E0FD2060002010BD10B582
:1053C00004464FF0FF31206802F046F910BD10B5D9
:1053D000044600231A461946206801F0C9FE10BD94
:1053E00010B504464FF4FA630022114601A0FBF702
:1053F0004FF810BD41542B434950434C4F53450087
:10540000F0B599B005460E46174642E04FF4FA63F0
:105410000022114621A0FBF73BF804461CB12146AF
:1054200021A0FDF78DFC42F210730022114624A04A
:10543000FBF72EF8044624B1214629A0FDF780FC95
:1054400027E04FF4FA63002211462BA0FBF720F867
:10545000044637B933462A462AA16846FDF780FC40
:1054600005E033462A462EA16846FDF779FC44F64E
:105470002063002211466846FBF70AF804462CB167
:10548000224669462DA0FDF75BFC02E004B901E06D
:1054900000BFBBE700BF002019B0F0BD41542B4353
:1054A000574D4F44453D310041542B43574D4F44D8
:1054B000453D3120657272203D2025640D0A0000B3
:1054C00041542B43574A41503D22573230313331FA
:1054D0003448222C22686567756F62616F22000074
:1054E000636F6E6E65637420415020657272203D5B
:1054F0002025640D0A00000041542B434950434CC1
:105500004F53450041542B43495053544152543D4D
:1055100022544350222C222573222C257300000094
:1055200041542B43495053544152543D2255445009
:10553000222C222573222C25730000002573206560
:105540007272203D2025640D0A0000002DE9F0470D
:1055500081460F4614469846002509E078194146D1
:10556000FAF722FF064616B10020BDE8F0876D1C51
:10557000A542F3DB2046F8E72DE9F0419EB08046D6
:105580000E4615461F462A4615A119A8FDF7E8FB49
:105590003B466422694619A8FAF77AFF044684B1AB
:1055A00000208DF863003B46224619A910A0FDF7A4
:1055B000C7FB694615A0FDF7C3FB20461EB0BDE83A
:1055C000F0813A4629463046FAF798FF04462CB156
:1055D000214611A0FDF7B4FB2046EFE72846EDE792
:1055E00041542B43495053454E443D25640000002F
:1055F000257320657272203D2025642C2074696D0E
:10560000656F7574203D2025640D0A007265737006
:10561000203A2025730D0A00415453656E6444619D
:10562000746120657272203D2025640D0A0000001F
:1056300010B5044600231A461946206801F098FD6B
:1056400010BD000010B504460849206801F0E0FED6
:105650000648006838B14FF0805005490860BFF334
:105660004F8FBFF36F8F012010BD00009C00002002
:1056700004ED00E010B5044603220021012001F0F2
:105680008CFC2060002010BD70B504460D462946F4
:10569000206801F0E1FF70BD10B5044614B1206828
:1056A00001F02AF92046FFF77CFE10BD2DE9FC5FD2
:1056B00004460D4616461F46DDE90C9B0420FFF705
:1056C00063FE8046BAB2334621462846CDE90098AB
:1056D00002F0E4F88246BAF1010F05D04046FFF728
:1056E00060FE0020BDE8FC9F4046FBE710B5044685
:1056F000206801F01BFA10BD704710B50446206801
:1057000001F0B8FA10BD70B504460D4600F02EF851
:10571000206020682844206070BD0021016070472F
:1057200010B5044600F022F82168884201D9012012
:1057300010BD0020FCE710B500F018F810BD70B5E2
:10574000044600F013F805462068A84201D800205E
:1057500070BD2068401BFBE770B5044614B12546B8
:1057600005B90125284601F099F870BD10B502F081
:1057700033F910BD2DE9F04105460E46164807687D
:1057800016480068001D00F009FF681C38B936B1E2
:1057900012480168091D124800F056FF1AE07C19F2
:1057A0000E4800684460BC4207D20C480168091DDD
:1057B0000C48006800F02EFF0CE008480168091D45
:1057C0000948006800F026FF08480068844201D2BA
:1057D00006480460BDE8F081300000201C00002075
:1057E000800A002024000020200000204C0000201F
:1057F00010B5044600F034FF24480068401C2349DB
:1058000008602348006840B92148046008460068E1
:1058100001280DD100F010FA0AE01E48006838B9DE
:105820001B480068C06AE16A884201D818480460D1
:1058300019480068401C1849086008460068606400
:105840001649E06A0968884202D91449E06A08608A
:10585000E16A01EB8101124A02EB8100211D00F097
:10586000F3FE00F027FF0B48006868B108480068A5
:10587000C06AE16A884207D24FF080500949086047
:10588000BFF34F8FBFF36F8F10BD00002C000020BF
:105890001C000020380000204800002034000020B8
:1058A000D005002004ED00E008B500F0D9FE124854
:1058B0000068E8B9114800F09DFE114800F09AFE1A
:1058C0000E48104908600E480F49086000200F4B31
:1058D0000F4A102100900A2001F08EFB0649086053
:1058E0000846006820B10BA10348006800F09AFF49
:1058F00000F0E0FE08BD000060000020940A0020D7
:10590000A80A0020580000205C000020BC0A0020EB
:105910000C0B0020546D72510000000010B516E011
:1059200000F09EFE0C48C068C468201D00F036FEE2
:105930000A480068401E0949086009480068401E7E
:105940000749086000F0B6FE204600F05EF8044803
:1059500000680028E4D110BD6C0A00202C00002053
:105960002800002070B504460D46206C70B1216CF3
:10597000E0680844E0606168E068884201D320681C
:10598000E0602846226CE168FAF75CFC70BD2DE906
:10599000F04104460F4615464FF00008A66B206CF8
:1059A00040B9206860BB606802F0BEF88046002005
:1059B000606025E07DB93946226CA068FAF742FCA8
:1059C000216CA0680844A060D4E90110884217D374
:1059D0002068A06014E03946226CE068FAF732FCD7
:1059E000216CE068401AE0602168E068884203D2D8
:1059F000216C6068401AE060022D01D106B1761E6C
:105A0000701CA0634046BDE8F08110B5044694F8D0
:105A1000590030B9206B00F06BFE204600F068FEA4
:105A20001AE094F85900012803D1204600F060FEE6
:105A300012E094F85900022801D1012000E0002072
:105A400050B900BF502080F31188BFF34F8FBFF3D0
:105A50006F8F00BF00BFFEE710BD01464A6A22B14A
:105A60000A6B1268C2F1380000E0002070470000A5
:105A70000146084A126812680AB9012200E00022B1
:105A80000A600A6822B9034A1268D268106800E006
:105A9000002070475800002030B54FF400531748DD
:105AA00000F007042CB1C01D20F00700134C041BAC
:105AB0001B1B0246124C22600024114D6C60D01852
:105AC000083820F007000F4C206000240D4D2D6891
:105AD0006C600C4D2D682C601146441A4C60094CCA
